1. Get key values using the salt (string representation of 8 byte HEX array). Use -k password to include pwd in command
line:

   openssl enc -e -aes-256-cbc -k <password> -p -P -S <Salt>

Example:
   gentoo64 caumedse # openssl enc -e -aes-256-cbc -k 1234 -p -P    
   salt=D91DE1FA6FA79E5A
   key=D0B920D40FC5B684FA2FE0958004D5307EFB47FFF56571EBAB0D708FA312D8C2
   iv =C3A9EE470A2FF20F870DF6E740AEF12D

   gentoo64 caumedse # openssl enc -e -aes-256-cbc -k 1234 -p -P -S D91DE1FA6FA79E5A
   salt=D91DE1FA6FA79E5A
   key=D0B920D40FC5B684FA2FE0958004D5307EFB47FFF56571EBAB0D708FA312D8C2
   iv =C3A9EE470A2FF20F870DF6E740AEF12D
	
Note that when using the same salt, key and iv derived from password string are always the same (using PKCS1.5). 
if no salt is specified, openssl command line tool generates a random salt. Salt is stored within the DatabasesDB 
master database.


2. Decrypt the b64 representation using by using the key and iv obtained from step 1 (with corresponding salt):

   openssl enc -d -a -aes-256-cbc -nosalt -in <b64_enc_file> -out <dec_file> -K <hex string key> -iv <hex string iv>


----------------------------------------------------------------

Full example (using last register in SQLite3 file):

gentoo64 caumedse# hexdump -C DatabasesDB 
00000000  53 51 4c 69 74 65 20 66  6f 72 6d 61 74 20 33 00  |SQLite format 3.|
00000010  04 00 01 01 00 40 20 20  00 00 00 05 00 00 00 02  |.....@  ........|
00000020  00 00 00 00 00 00 00 00  00 00 00 01 00 00 00 01  |................|
00000030  00 00 00 00 00 00 00 00  00 00 00 01 00 00 00 00  |................|
00000040  00 00 00 00 00 00 00 00  00 00 00 00 00 00 00 00  |................|
00000050  00 00 00 00 00 00 00 00  00 00 00 00 00 00 00 05  |................|
00000060  00 2d e2 1a 0d 00 00 00  01 03 8b 00 03 8b 00 00  |.-..............|
00000070  00 00 00 00 00 00 00 00  00 00 00 00 00 00 00 00  |................|
*
00000380  00 00 00 00 00 00 00 00  00 00 00 73 01 07 17 19  |...........s....|
00000390  19 01 81 41 74 61 62 6c  65 63 6f 6c 73 44 42 63  |...AtablecolsDBc|
000003a0  6f 6c 73 44 42 02 43 52  45 41 54 45 20 54 41 42  |olsDB.CREATE TAB|
000003b0  4c 45 20 63 6f 6c 73 44  42 20 28 69 64 20 49 4e  |LE colsDB (id IN|
000003c0  54 45 47 45 52 20 50 52  49 4d 41 52 59 20 4b 45  |TEGER PRIMARY KE|
000003d0  59 2c 20 65 6e 63 5f 64  62 69 64 20 54 45 58 54  |Y, enc_dbid TEXT|
000003e0  2c 20 65 6e 63 5f 63 6f  6c 64 62 66 69 6c 65 20  |, enc_coldbfile |
000003f0  54 45 58 54 2c 20 73 61  6c 74 20 54 45 58 54 29  |TEXT, salt TEXT)|
00000400  0d 00 00 00 04 02 38 00  03 8e 03 1c 02 aa 02 38  |......8........8|
00000410  00 00 00 00 00 00 00 00  00 00 00 00 00 00 00 00  |................|
*
00000630  00 00 00 00 00 00 00 00  70 04 06 00 3f 81 0f 2d  |........p...?..-|
00000640  68 6d 4d 7a 74 57 37 6d  64 33 39 5a 50 75 76 33  |hmMztW7md39ZPuv3|
00000650  57 32 58 39 6a 67 3d 3d  0a 6a 32 74 79 54 2b 4e  |W2X9jg==.j2tyT+N|
00000660  6b 4e 7a 67 30 73 52 31  65 73 47 5a 78 79 37 36  |kNzg0sR1esGZxy76|
00000670  4c 4b 47 6e 70 63 63 61  55 50 37 37 68 62 41 48  |LKGnpccaUP77hbAH|
00000680  49 76 2f 68 69 74 69 69  68 58 75 4d 36 6f 58 2b  |Iv/hitiihXuM6oX+|
00000690  61 35 42 76 42 55 50 55  2f 0a 36 37 43 31 32 38  |a5BvBUPU/.67C128|
000006a0  34 35 41 39 33 44 46 44  44 37 70 03 06 00 3f 81  |45A93DFDD7p...?.|
000006b0  0f 2d 68 6d 4d 7a 74 57  37 6d 64 33 39 5a 50 75  |.-hmMztW7md39ZPu|
000006c0  76 33 57 32 58 39 6a 67  3d 3d 0a 57 75 4a 51 30  |v3W2X9jg==.WuJQ0|
000006d0  53 4d 4a 38 5a 63 51 6c  37 6e 43 42 4e 75 38 51  |SMJ8ZcQl7nCBNu8Q|
000006e0  38 34 4b 47 54 37 77 58  76 50 41 36 6a 2f 5a 50  |84KGT7wXvPA6j/ZP|
000006f0  6b 6b 52 49 5a 46 79 76  38 45 4a 6f 44 6b 57 31  |kkRIZFyv8EJoDkW1|
00000700  43 79 30 66 6e 6e 33 49  5a 6f 76 0a 36 37 43 31  |Cy0fnn3IZov.67C1|
00000710  32 38 34 35 41 39 33 44  46 44 44 37 70 02 06 00  |2845A93DFDD7p...|
00000720  3f 81 0f 2d 68 6d 4d 7a  74 57 37 6d 64 33 39 5a  |?..-hmMztW7md39Z|
00000730  50 75 76 33 57 32 58 39  6a 67 3d 3d 0a 50 71 71  |Puv3W2X9jg==.Pqq|
00000740  2f 66 73 4c 73 61 44 62  6c 77 2f 54 6d 47 34 44  |/fsLsaDblw/TmG4D|
00000750  45 41 48 6e 70 50 78 34  4d 61 79 73 4b 44 77 50  |EAHnpPx4MaysKDwP|
00000760  71 67 61 4c 4c 49 7a 69  32 33 70 79 75 63 30 42  |qgaLLIzi23pyuc0B|
00000770  6a 31 4e 62 51 4e 4c 6e  50 75 39 62 57 0a 36 37  |j1NbQNLnPu9bW.67|
00000780  43 31 32 38 34 35 41 39  33 44 46 44 44 37 70 01  |C12845A93DFDD7p.|
00000790  06 00 3f 81 0f 2d 68 6d  4d 7a 74 57 37 6d 64 33  |..?..-hmMztW7md3|
000007a0  39 5a 50 75 76 33 57 32  58 39 6a 67 3d 3d 0a 54  |9ZPuv3W2X9jg==.T|
000007b0  61 55 72 4c 58 43 4e 66  2f 46 4d 68 53 4e 72 36  |aUrLXCNf/FMhSNr6|
000007c0  6e 52 38 68 66 30 65 2b  74 79 4f 45 54 31 70 74  |nR8hf0e+tyOET1pt|
000007d0  39 31 47 69 36 33 35 47  31 6c 5a 59 38 75 4d 68  |91Gi635G1lZY8uMh|
000007e0  42 72 31 50 4c 76 6f 58  4a 41 71 62 6e 73 50 0a  |Br1PLvoXJAqbnsP.|
000007f0  36 37 43 31 32 38 34 35  41 39 33 44 46 44 44 37  |67C12845A93DFDD7|
00000800

gentoo64 caumedse # openssl enc -e -aes-256-cbc -k P4ssW0rd -p -P -S 67C12845A93DFDD7
salt=67C12845A93DFDD7
key=B9D30F942CC3051C8FAC0F70FAB31700B8E6AE998F14A90BEB2E00BD10AAC095
iv =604AFBF9818E80CA7539CC532FCC6F34

gentoo64 caumedse # echo -e "TaUrLXCNf/FMhSNr6nR8hf0e+tyOET1pt91Gi635G1lZY8uMhBr1PLvoXJAqbnsP\n" > openssl_b64_enc_sample.txt 
gentoo64 caumedse # cat openssl_b64_enc_sample.txt 
TaUrLXCNf/FMhSNr6nR8hf0e+tyOET1pt91Gi635G1lZY8uMhBr1PLvoXJAqbnsP

gentoo64 caumedse # 

gentoo64 caumedse # openssl enc -d -a -aes-256-cbc -nosalt -in openssl_b64_enc_sample.txt -out openssl_b64_enc_sample-deciphered.txt -K B9D30F942CC3051C8FAC0F70FAB31700B8E6AE998F14A90BEB2E00BD10AAC095 -iv 604AFBF9818E80CA7539CC532FCC6F34
gentoo64 caumedse # cat openssl_b64_enc_sample-deciphered.txt 
040610EEFE7433F33ACCF5F34F4A2DC6gentoo64 caumedseEngine # 

gentoo64 caumedse # ls -la
total 36
drwxr-xr-x  2 caumedse caumedse 4096 Sep 25 20:12 .
drwxr-xr-x 21 root    root    4096 Sep 13 00:00 ..
-rw-r--r--  1 root    root    3072 Sep 25 20:12 040610EEFE7433F33ACCF5F34F4A2DC6
-rw-r--r--  1 root    root    3072 Sep 25 20:12 9B506FAB662C6B2057D1ABA24817AD26
-rw-r--r--  1 root    root    4096 Sep 25 20:12 AccessDB
-rw-r--r--  1 root    root    3072 Sep 25 20:12 B0BF8311205D9EAF5BB641002B56F630
-rw-r--r--  1 root    root    2048 Sep 25 20:12 DatabasesDB
-rw-r--r--  1 root    root    3072 Sep 25 20:12 ED68044263B324941430B9789A959026
-rw-r--r--  1 root    root    4096 Sep 25 20:12 LogsDB
gentoo64 caumedse #

